:020000040800F2
:10000000D80A002091010008E71300086D120008CB
:10001000E5130008EF0400081F18000800000000A6
:10002000000000000000000000000000471500086C
:100030009D0600080000000045150008491500084D
:10004000AB010008AB010008AB010008AB010008E0
:10005000AB010008AB010008AB010008AB010008D0
:10006000AB010008AB010008AB010008AB010008C0
:10007000AB010008AB010008AB010008AB010008B0
:10008000AB010008AB010008AB010008AB010008A0
:10009000AB010008AB010008AB010008AB01000890
:1000A000AB010008AB010008AB010008AB01000880
:1000B000AB010008AB010008AB010008AB01000870
:1000C000AB010008AB010008AB010008AB01000860
:1000D000AB010008AB010008AB010008AB01000850
:1000E000AB010008AB010008AB01000800F002F80A
:1000F00000F03FF80AA090E8000C82448344AAF183
:100100000107DA4501D100F034F8AFF2090EBAE880
:100110000F0013F0010F18BFFB1A43F0010318473B
:10012000341D0000541D0000103A24BF78C878C167
:10013000FAD8520724BF30C830C144BF04680C60ED
:10014000704700000023002400250026103A28BF35
:1001500078C1FBD8520728BF30C148BF0B60704739
:10016000642900F08380002070471FB51FBD10B5C3
:1001700010BD00F082F91146FFF7F7FF01F042FCD5
:1001800000F0A0F903B4FFF7F2FF03BC00F0A8F9F8
:100190000948804709480047FEE7FEE7FEE7FEE71B
:1001A000FEE7FEE7FEE7FEE7FEE7FEE70448054957
:1001B000054A064B70470000D9150008ED000008FD
:1001C000D8040020D80A0020D8060020D806002035
:1001D0000FB41CB50C0007AA009001D02044401EAB
:1001E000074B7B4469460190069800F026F9002CE5
:1001F00003D06946002000F033F91CBC5DF814FB05
:10020000850200002DE9F0410E46044600202062E0
:100210002046E168884730B3252805D0D4E901217C
:100220009047206A401CF2E7E16820460027884793
:10023000050018D0A5F14100192802D820354FF447
:1002400000673246294620462760FFF789FF40B104
:10025000012804D0F61D26F007060836D8E7361D1B
:10026000D6E72846DAE7206ABDE8F0812DE9F041BB
:100270000646002410687529314616A510D0AFF344
:100280000080002802DA404213A507E031688A079F
:1002900001D512A502E0490704D511A5012401E00A
:1002A000AFF3008000210A2206F1240709E0B0FB29
:1002B000F2FCB0FBF2F302FB1C003030785418461D
:1002C000491C0028F3D123462A463046BDE8F041B8
:1002D00000F054B8000000002D0000002B000000CA
:1002E000200000004FF000020429C0F0128010F03E
:1002F000030C00F01B80CCF1040CBCF1020F18BF02
:1003000000F8012BA8BF20F8022BA1EB0C0100F094
:100310000DB85FEAC17C24BF00F8012B00F8012B67
:1003200048BF00F8012B70474FF0000200B513469C
:1003300094469646203922BFA0E80C50A0E80C5005
:10034000B1F12001BFF4F7AF090728BFA0E80C50B6
:1003500048BF0CC05DF804EB890028BF40F8042BAF
:1003600008BF704748BF20F8022B11F0804F18BF1C
:1003700000F8012B70477047704770472DE9F04730
:100380000D4699469246044600F124080168880605
:1003900004D5E06921F01001216000E00120A842AD
:1003A00001DD471B00E00027A1697A1902EB090073
:1003B000081AA0612078C00602D42046AFF300805E
:1003C000002608E0D4E901211AF806009047206AC7
:1003D000401C761C20624E45F4DB2078C0060AD50E
:1003E0002046AFF3008006E0D4E901213020904799
:1003F000206A401C2062381EA7F10107F4DC07E0E8
:10040000D4E9012118F805009047206A401C2062B9
:10041000281EA5F10105F3DC2046AFF3008020780B
:10042000000602D50220BDE8F0870120FBE70000AE
:1004300001694A1C02610878704700B58FB0CDE9A8
:1004400001310021059105497944CDE90310114698
:100450006846FFF7D7FE0FB000BD0000E5FFFFFFC5
:100460000A6802F8010B0A607047D1E900239A423A
:1004700002D2531C0B6010707047754600F02CF8C8
:10048000AE4605006946534620F00700854618B081
:1004900020B5FFF78BFEBDE820404FF000064FF07F
:1004A00000074FF000084FF0000B21F00701AC46A9
:1004B000ACE8C009ACE8C009ACE8C009ACE8C009C8
:1004C0008D46704710B50446AFF300802046BDE866
:1004D0001040FFF757BE0000004870477804002026
:1004E00001491820ABBEFEE7260002007047FEE778
:1004F000014890F9000070471B00002010B5002152
:10050000054800F065FE0448002100684163034887
:1005100041700A21017010BD300000201B00002036
:1005200001484078704700001B0000206FF01D015B
:10053000884201DA084602E01E2800DD1E2001493B
:10054000087070471B000020094B10B5094993F94A
:100550000020541C0968A04204DD40F2E7304863E3
:10056000012003E0904202DC00204863587010BD77
:100570001B00002030000020C00000E000BF401E33
:10058000FCD270472DE9FC474FF0000A5FEA0009F2
:10059000CDF800A05546CDF804A073D03E4C20689D
:1005A00020F00F0040F0050020603B480126143089
:1005B0000660142000F076F83748103006601E20E0
:1005C000FFF7DAFF206820F00F0040F008002060FD
:1005D000314C4FF4FA71083403E06D1CADB28D421A
:1005E00050D82068C007F8D103E0401C80B2884290
:1005F00048D82268D207F8D00020884603E0401C83
:1006000080B240453ED82168C907F8D100260025B0
:100610002F466806050E002005E0401C80B24045CC
:1006200001D9554618E02168C907F6D02820FFF700
:10063000A3FF2068C0070BD045F00105002041460C
:1006400003E0401C80B2884202D82268D207F8D169
:100650007F1CFFB2082FDCD30DF80650761CF6B2D3
:10066000052ED4D39DF800209DF801009DF80210BE
:100670009DF8033010440B4418449DF80430C0B278
:10068000834202D00120BDE8FC8789F8002089F868
:1006900001100020F7E7000000080140704772B623
:1006A000FEE7000070B5044600F004F90546601C42
:1006B00002D004480078044400F0FCF8401BA0423B
:1006C000FAD370BD200000202DE9F84FDFF8B89173
:1006D0000024A9F1040B23460F2709F1040AABF10A
:1006E000040EC9E00125A5402A40AA427DD1674EEB
:1006F000D1F804C0ACEB0608B44532D014DCBCF130
:10070000030F3AD009DCBCF1000F2AD0BCF1010F75
:100710001CD0BCF1020F31D11DE0BCF1110F17D07C
:10072000BCF1120F2AD119E0B8F5881F19D006DCE8
:10073000B8F5803F15D0B8F5801F1FD111E0B8F58E
:10074000001F0ED0B8F5041F18D10AE0CB6815E0E1
:10075000CB681B1D12E0CB6808330FE0CB680C336D
:100760000CE08B682BB1012B4FF0080303D04561DF
:1007700004E0042302E0056100E00023FF2A01D821
:10078000064601E000F104064FEA840501D9A5F10F
:100790002005D6F8008007FA05FC28EA0C0803FAC1
:1007A00005F548EA0508C6F800804D68ED0062D5F9
:1007B000374DAE6946F00106AE61AD6924F003061F
:1007C00005F001050095334D06EB050CDCF80850EB
:1007D000A607360F07FA06F825EA0805DFF8B880FD
:1007E000404503D14FF0000817E044E0DFF8AC804B
:1007F000404502D14FF001080FE0DFF8A4804045EA
:1008000002D14FF0020808E0DFF89880404502D19D
:100810004FF0030801E04FF0040808FA06F848EA30
:100820000508CCF808804D68D9F80060ED024D4607
:1008300001D5164300E096432E604D68DAF800605B
:10084000AD02554601D5164300E096432E604D6833
:10085000DBF80060AD035D4601D5164300E096432A
:100860002E604D68DEF80060ED03754601D5164335
:1008700000E096432E60641C0D682A46E5407FF434
:1008800031AFBDE8F88F00000804014000001110EE
:10089000001002400000014000080140000C01402F
:1008A00000100140001401408068084000D0012081
:1008B0007047000001488068704700002000002059
:1008C000024881680278114481607047200000204E
:1008D000074810B5016841F010010160032000F0E5
:1008E00067F80F2000F006F800F024F8002010BD93
:1008F0000020024070B50D4D04464FF47A712878FF
:10090000B1FBF0F00A490968B1FBF0F000F0AEFA73
:1009100048B9102C07D200222146501E00F028F8BA
:1009200000206C6070BD012070BD00002000002020
:100930002C0000200C4808B5816941F0010181615B
:10094000816901F001010091C16941F08051C161EB
:10095000C06900F0805000900448416821F0E061D7
:1009600041F00071416008BD0010024000000140EC
:10097000F0B40E4B1B680C46C3F30223C3F107050A
:10098000042D00D90425191D072901D2002300E0F8
:10099000DB1E012606FA05F1491E214099409E40C2
:1009A000761E16403143F0BC00F03ABF0CED00E07B
:1009B000064900F0070208684FF6FF03184040EAB6
:1009C0000220034A10430860704700000CED00E06D
:1009D0000000FA052DE9F0470F46050061D0434EAF
:1009E000306800F00700B84209D2306820F00700F4
:1009F00038433060306800F00700B84251D12868B1
:100A00003B4C810712D5400703D5606840F4E06095
:100A100060602878000703D5606840F4605060602B
:100A20006068A96820F0F000084360602878C0077B
:100A300028D06868012810D02168022810D08907C2
:100A400000292EDA616821F0030101436160FFF79C
:100A500031FF804641F288390DE021688903EFE7D4
:100A60008901EDE7FFF726FFA0EB0801494502D910
:100A70000320BDE8F0876068696800F00C00B0EB07
:100A8000810FEFD1306800F00700B8420BD9306811
:100A900020F0070038433060306800F00700B842AB
:100AA00001D00120E5E72878400705D56068E968AE
:100AB00020F4E060084360602878000706D560688D
:100AC000296920F4605040EAC100606000F018F825
:100AD0006168084AC1F30311515CC84006490860C7
:100AE00006480068FFF706FF0020C2E7002002402A
:100AF00000100240431E00082C00002024000020AB
:100B00000E4A51680E4801F00C03042B11D0082B3B
:100B10000FD10C48C1F38343C903C05C0AD55168A7
:100B2000084AC1F34041921E515C054A5043B0FB54
:100B3000F1F070470449484370470000001002403C
:100B400000127A00331E000800093D002DE9F84F1D
:100B5000040070D02078C04DC00749D06868C0F349
:100B60008100012807D06868C0F38100022809D1FC
:100B70006868C00306D52868800339D560680028F6
:100B8000E7D035E06068B0F5803F0BD010B1B0F52C
:100B9000A02F11D0286820F480302860286820F425
:100BA000802002E0286840F480302860606890B1BE
:100BB000FFF780FE06460AE0286840F4802028609F
:100BC000F0E700BFFFF776FE801B642873D8286823
:100BD0008003F7D50CE0FFF76DFE064605E000BF89
:100BE000FFF768FE801B6428F0D828688003F7D4DC
:100BF00020789A4E80074FF001094FF0000839D550
:100C0000686810F00C0F07D06868C0F381000228F4
:100C100009D16868C00306D42868800714D5206904
:100C2000012808D110E02069B0B1C6F80090FFF7A4
:100C300041FE074605E00AE1FFF73CFEC01B022823
:100C4000C4D828688007F7D52868616920F0F800C3
:100C500040EAC10028600DE0C6F80080FFF72AFED8
:100C6000074604E0FFF726FEC01B022823D82868A9
:100C70008007F7D4207800072CD57948A169D9B12D
:100C8000C0F80090FFF716FE074604E0FFF712FEDB
:100C9000C01B02280FD8686A8007F7D571484FF447
:100CA000FA510068B0FBF1F0009000BF0098411EBF
:100CB0000091FAD20EE080E0C0F80080FFF7FAFD64
:100CC000074604E0FFF7F6FDC01B022875D8686AE6
:100CD0008007F7D42078400760D5E8690027C00076
:100CE00008D4E86940F08050E861E869012700F025
:100CF000805000905C480168C90513D401688346A0
:100D000041F480710160FFF7D5FD824606E000BF27
:100D1000FFF7D0FDA0EB0A0064284ED8DBF80000F6
:100D2000C005F5D5E06801280AD008B1052813D020
:100D3000286A20F001002862286A20F0040002E0FE
:100D4000286A40F001002862E06841F2883B98B1CF
:100D5000FFF7B0FD82460BE0286A40F004002862ED
:100D6000EEE700BFFFF7A6FDA0EB0A0159455AD8F0
:100D7000286A8007F6D50CE0FFF79CFD824605E067
:100D8000FFF798FDA0EB0A0159454CD8286A800767
:100D9000F6D41FB1E86920F08050E861E06988B3BB
:100DA0006968C1F38101022944D00228C6F8608035
:100DB00004D0FFF77FFD044638E034E0FFF77AFD0A
:100DC000074604E0FFF776FDC01B02282BD82868F1
:100DD0008001F7D4206AB0F5803F05D16868A1682A
:100DE00020F4003008436860D4E9080108436968CA
:100DF00021F4741108436860C6F86090FFF75AFD4B
:100E0000044606E025E000BFFFF754FD001B022862
:100E100009D828688001F7D51BE000BFFFF74AFD1D
:100E2000001B022802D90320BDE8F88F2868800142
:100E3000F4D40EE00128F7D06868226A00F480310B
:100E4000914204D1616A00F47010884201D00120FF
:100E5000EAE70020E8E700000010024000004242FC
:100E6000800442422C0000200070004010B5401E5B
:100E7000B0F1807F01D3012010BD4FF0E02460610C
:100E80000F21601700F0CCFC0020A061072020613A
:100E9000002010BD70B590F83C20012A26D0012416
:100EA00080F83C40022280F83D2003685A689D6823
:100EB00022F070060A6832435A600D4B02689A426B
:100EC00008D0B2F1804F05D00A4B9A4202D00A4BAB
:100ED0009A4204D1496825F080031943916080F853
:100EE0003D40002180F83C10084670BD022070BDD6
:100EF000002C0140000400400008004010B5040030
:100F000003D094F83D0010B107E0012010BD00208F
:100F100084F83C00204600F01FF8022084F83D00D1
:100F2000211D206800F05AFB012084F8460084F857
:100F30003E0084F83F0084F8400084F8410084F8C3
:100F4000420084F8430084F8440084F8450084F8A3
:100F50003D00002010BD000008B500680649884229
:100F600008D10648C16941F00201C161C06900F0C1
:100F70000200009008BD0000000400400010024084
:100F800070B5044690F83C000025012817D00126D2
:100F900084F83C60022084F83D002068826822F0DA
:100FA000770222F47F4282600868502838D00DDC36
:100FB00020284FD005DC90B3102811D14AE0022040
:100FC00070BD302846D040280AD13BE060282FD0A1
:100FD00070280DD0B0F5805F03D0B0F5005F12D05F
:100FE000012584F83D60002084F83C00284670BD4F
:100FF000CB68D1E90121206800F039FB20688168C5
:1010000041F0770109E0CB68D1E90121206800F0C7
:101010002EFB2068816841F480418160E1E719E09E
:10102000CA684968206800F0D7FB5021206806E0B4
:10103000CA684968206800F0E0FB6021206800F081
:1010400020FBCEE7CA684968206800F0C5FB402154
:101050002068F4E7226801461046F0E700B585B045
:101060000021009101910291039100680B4988428F
:1010700011D10B48816941F00401816180696946A1
:1010800000F00400049040200090022001900390A2
:101090000448FFF719FB05B000BD00000004004044
:1010A000001002400008014070B5044690F83C0072
:1010B00000260D4601280FD0012084F83C006AB1BB
:1010C000042A1DD0082A2FD00C2A3FD00126002048
:1010D00084F83C00304670BD022070BD206800F0EE
:1010E000D9FA2068816941F008018161206881692D
:1010F00021F004018161206881692A69114311E0AE
:10110000206800F0EFFA2068816941F40061816194
:101110002068816921F480618161206881692A6980
:1011200041EA02218161D2E7206800F007FB2068D4
:10113000C16941F00801C1612068C16921F0040161
:10114000C1612068C1692A69114311E0206800F07B
:1011500021FB2068C16941F40061C1612068C16957
:1011600021F48061C1612068C1692A6941EA0221D4
:10117000C161ACE710B5040003D094F83D0010B194
:1011800007E0012010BD002084F83C00204600F05C
:101190001EF8022084F83D00211D206800F01EFA90
:1011A000012084F8460084F83E0084F83F0084F86B
:1011B000400084F8410084F8420084F8430084F839
:1011C000440084F8450084F83D00002010BD7047BD
:1011D00010B50446022249B104290ED0082913D0C3
:1011E00094F84100012816D0012010BD94F83E006B
:1011F0000128F9D184F83E200FE094F83F0001283F
:10120000F2D184F83F2008E094F840000128EBD1A7
:1012100084F8402001E084F841200122206800F099
:1012200019FA0F492068884203D1426C42F4004207
:1012300042642068884208D0B0F1804F05D0094947
:10124000884202D00849884204D1816801F0070130
:10125000062903D0016841F001010160002010BDA2
:10126000002C01400004004000080040FEE70000A0
:10127000084908784A78904201D100207047054813
:101280004A78C01D805C4A78521C02F007024A70FE
:10129000704700000C00002070B514488178491C8C
:1012A000C9B281700A2920D300218170104C02211B
:1012B0002046FFF7F9FAA0B1002504212046FFF7E8
:1012C000F3FA80B1002409490122C91C284600F024
:1012D00077FB2046BDE8704004490222491D00F01A
:1012E0006FBB0125E9E70124EDE770BD0C0000208C
:1012F0000008014000B585B000200190039011481E
:10130000816941F020018161816901F0200104912E
:10131000816941F004018161816901F00401049156
:10132000816941F0080181618069694600F0080027
:10133000049007200090012002900348FFF7C4F9B1
:1013400005B000BD001002400008014010B58EB08D
:1013500000240794089409940A940B941C2168466D
:101360000C94FEF7E1FF1E481C4901604721C0E9CB
:10137000011440F2E731C0E903148461FFF7BEFDB8
:1013800008B1FFF78CF94FF48050079007A9144873
:10139000FFF7F6FD08B1FFF782F91148FFF7EAFE03
:1013A00008B1FFF77CF90B940BA90D480C94FFF7DB
:1013B00071FD08B1FFF773F96020CDE900040294D4
:1013C0000022694606480494FFF76EFE08B1FFF755
:1013D00066F90348FFF742FE0EB010BD000400405E
:1013E00030000020FEE7FEE710B54FF480610348AF
:1013F000FEF778FFBDE8104000F022B8780000202A
:1014000010B56420FFF74EF900F02AFA3220FFF7FA
:1014100049F90A4C7820207000F058FA28B97A204F
:1014200000F054FA08B17A20207000F0BDFB1420BF
:10143000FFF738F9BDE81040FFF7D6BF1D000020C8
:101440002DE9F047DFF85C90DFF85CA000244FF056
:10145000100800BF04F1B000C0B200F05FF84046D1
:1014600000F05CF8002000F059F809EBC417802662
:1014700000F03CFA9AF8000000F064FA402000F016
:1014800061FA0025785D00F05DFA6D1CADB2B542E1
:10149000F8D300F03DFA641CE4B2082CDAD3BDE8BE
:1014A000F0870000780000201D0000204006000E9C
:1014B0000A460146002000F001B80000F0B5154DC5
:1014C00024E0841D802C02D90020491CC9B20829BF
:1014D0001FD2A3F12004602C00D32023203BDCB2D8
:1014E0000D4E04EB84042644002300EBC114F75C8A
:1014F00004EB030C5B1CDBB205F80C70052BF6D378
:1015000000232C44801D6371C0B2521C1378002B41
:10151000D7D1F0BD78000020561C000810B5044655
:1015200000F0E4F90648007800F00CFA002000F022
:1015300009FA204600F006FABDE8104000F0E8B9CC
:101540001D0000207047704710B5FFF7B9F9BDE8DE
:101550001040FFF7A1BEF0B58FB028216846FEF716
:10156000E3FE14210AA8FEF7DFFE01252804CDE9D9
:1015700000500024029402270495CDE907704FF42F
:10158000E01009906846FFF7E1FA0F2698B1CDE91F
:101590000074049568460794FFF7D8FACDE90A6409
:1015A0000C940D9400210AA80E94FFF713FA00285A
:1015B00010D072B6FEE74FF48060CDE90C400221F6
:1015C0000AA80E94CDE90A67FFF704FA002801D0B3
:1015D00072B6FEE70FB0F0BD70470000F0B50268CC
:1015E000194B1A4C1A4D4FF08047984205D0B8421B
:1015F00003D0A04201D0A84203D122F070064A686D
:101600003243984205D0B84203D0A04201D0A8424C
:1016100003D122F44074CA6822434C6922F080024C
:10162000224302608A68C2620A688262984201D1DB
:1016300009690163012141610169C90703D0016999
:1016400021F001010161F0BD002C014000040040C7
:101650000008004010B501F01F030121046A994001
:101660008C430462016A9A401143016210BD10B5B7
:10167000846842EA032224F47F440A4322438260BE
:1016800010BD826822F070020A4342F007018160B7
:101690007047000030B5036A026A22F0010202625C
:1016A0004268846924F073050C682C4323F002051A
:1016B0008B682B430A4DA8420BD123F00805CB6859
:1016C00022F440722B434D6923F0040315438A69C9
:1016D0002A434260846149684163036230BD00006F
:1016E000002C014030B5026A036A23F01003036244
:1016F000436884690D6824F4E64444EA05248D684F
:1017000022F0200242EA05120B4DA8420ED1CD680C
:1017100022F0800242EA05124D6923F4406343EA55
:1017200085038D6922F0400243EA850343608461AA
:1017300049688163026230BD002C014030B5036A04
:10174000026A22F4807202624268C46923F4007360
:1017500024F073050C682C438D6843EA05230C4D77
:10176000A8420ED1CD6823F4006343EA05234D69F6
:1017700022F4405242EA05128D6923F4806342EA62
:1017800005124260C4614968C163036230BD000054
:10179000002C014030B5046A026A22F480520262D1
:1017A0004268C3690D6823F4E64343EA05238D6864
:1017B00024F4005444EA0534064DA84204D14D698E
:1017C00022F4804242EA85124260C36149680164A2
:1017D000046230BD002C014010B5036A046A24F095
:1017E00001040462846924F0F00444EA021423F042
:1017F0000A020A438461026210BD10B5036A046ADA
:1018000024F010040462846923F0A00324F47044DB
:1018100044EA023243EA01118261016210BDFEE72F
:101820000907090E002804DB00F1E02080F800140D
:10183000704700F00F0000F1E02080F8141D7047A1
:101840000549064A0968B1FBF2F1414300E000BFD7
:10185000491EFCD2704700002C00002040420F00BF
:10186000F0B5174885B0816941F00801816181694F
:1018700001F008010491C16921F40011C16111480E
:1018800000240460001D0460032040250126CDE9EA
:1018900002400D4FCDE9005669463846FEF714FF69
:1018A00080208DE8510069463846FEF70DFF064856
:1018B000103005600A20FFF7C3FF05B0F0BD00003F
:1018C0000010024000540040000C014010B50446D6
:1018D00000F00CF8204600F035F8044600F018F847
:1018E0000CB1002010BD012010BD000010B500F0AB
:1018F00051F9064C802020600520FFF7A1FF402011
:101900002060BDE810400520FFF79ABF140C01408D
:1019100010B500F03FF90A49802008600520FFF764
:101920008FFF07494020091F08600520FFF788FF47
:1019300000F020F9BDE810400520FFF781BF00004E
:10194000140C01402DE9F0471C4F002506464FF0CE
:1019500080094024A7F10408300602D500F00AF9F6
:1019600003E000F017F9C7F800900320FFF768FFC5
:10197000C8F800400520FFF763FF3C600320FFF735
:101980005FFF70066D1C060EEDB2082DE4D300F06B
:10199000F1F80520FFF754FFC8F800400520FFF7D5
:1019A0004FFF06480C3800683C60C0F3C0150320A8
:1019B000FFF746FF2846BDE8F0870000140C014001
:1019C00010B5C8B10878FF2801D2401C0870C0B219
:1019D000032810D3487800280DD10120487008480A
:1019E00001784378491C01F00701994203D004783B
:1019F000C31D1A55017010BD00200870487010BD3D
:101A00000C00002086B0FEF763FFFFF7A4FD642002
:101A1000FEF748FEFFF76EFCFFF798FCFFF7F0FCBF
:101A2000FEF76CFD3CA10020FFF740FD3DA1012029
:101A3000FFF73CFDFFF704FD4FF47A773846FEF7D9
:101A400031FEFEF737FF3A4C6060FEF733FF264663
:101A5000C4F80800FEF72EFF05460EE0012802D06C
:101A600002280AD103E0FEF743FD401C02E0FEF726
:101A70003FFD401E40B2FEF759FDFFF7F9FB00287D
:101A8000ECD16068281AB84208D329486560FEF78F
:101A900079FD18B996F90100FEF756FDA068281ADD
:101AA000B0F5967FD6D3A560737822A2112101A844
:101AB000FEF78EFB01A90020FFF7F8FCFEF718FDEA
:101AC00003461FA2112101A8FEF782FB01A90120F4
:101AD000FFF7ECFCFEF724FD08B11CA100E01EA1FD
:101AE0000220FFF7E3FC1F4D02212846FEF7DCFE33
:101AF000804604212846FEF7D7FE009043461AA2EE
:101B0000112101A8FEF764FB01A90320FFF7CEFC19
:101B1000FFF796FC9EE700004D696E6920467269EA
:101B2000646765005374617274696E672E2E2E00AF
:101B30000000002054656D703A20256420430000A9
:101B4000536574203A20256420430000436F6F6C76
:101B50003A204F4E20000000436F6F6C3A204F46F2
:101B600046000000000801404B313A2564204B320A
:101B70003A2564000648016821F0704141F00041B7
:101B8000016003480C30016841F08001016070473A
:101B9000000C01400348016821F0704141F04051C0
:101BA00001607047000C014010B5AE20FFF7B6FC95
:101BB0002020FFF7B3FC0020FFF7B0FCB020FFF7B8
:101BC000ADFCC820FFF7AAFC0020FFF7A7FC1020FF
:101BD000FFF7A4FC4020FFF7A1FC8120FFF79EFC4B
:101BE0007F20FFF79BFCA120FFF798FCA620FFF7C2
:101BF00095FCA820FFF792FC3F20FFF78FFCA42064
:101C0000FFF78CFCD320FFF789FC0020FFF786FC50
:101C1000D520FFF783FCF020FFF780FCD920FFF7E9
:101C20007DFC2220FFF77AFCDA20FFF777FC1220F8
:101C3000FFF774FCDB20FFF771FC2020FFF76EFC40
:101C40008D20FFF76BFC1420FFF768FCBDE8104007
:101C5000AF20FFF763BC000000000000005F000041
:101C60000007000700147F147F14242A7F2A122300
:101C70001308646236495522500005030000001C19
:101C80002241000041221C00082A1C2A0808083EA4
:101C900008080050300000080808080800606000CC
:101CA0000020100804023E5149453E00427F40009A
:101CB00042615149462141454B311814127F10278A
:101CC000454545393C4A49493001710905033649C2
:101CD000494936064949291E003636000000563665
:101CE0000000000814224114141414144122140892
:101CF000000201510906324979413E7E1111117EDF
:101D00007F494949363E414141227F4141221C7F62
:101D1000494949417F090901013E414151327F084A
:101D200008087F00417F41002040413F017F0814A7
:101D300022417F404040407F0204027F7F04081020
:101D40007F3E4141413E7F090909063E4151215EE6
:101D50007F09192946464949493101017F01013F5F
:101D60004040403F1F2040201F7F2018207F6314E9
:101D70000814630304780403615149454300007F5C
:101D80004141020408102041417F00000402010289
:101D90000440404040400001020400205454547864
:101DA0007F484444383844444420384444487F38C9
:101DB00054545418087E090102081454543C7F08F6
:101DC00004047800447D40002040443D00007F1022
:101DD000284400417F40007C041804787C080404F7
:101DE0007838444444387C14141408081414187CBB
:101DF0007C080404084854545420043F4440203CC8
:101E00004040207C1C2040201C3C4030403C44286A
:101E10001028440C5050503C4464544C4400083644
:101E2000410000007F0000004136080008082A1C1D
:101E300008010202030405060708090A0B0C0D0E2F
:101E40000F10100000000000000000010203040653
:101E500007080900741E0008000000203000000080
:101E600028010008A41E000830000020A80A000075
:101E70004401000800000000000000000000000015
:101E80000000000000000000000000000000000A48
:101E900000780000010000001000000000000000B9
:041EA00000127A00B2
:04000005080000ED02
:00000001FF
